:100000000C946C040C94B3040C94B3040C94B304DB
:100010000C94B3040C94B3040C94B3040C94B30484
:100020000C94B3040C94B3040C94C91F0C949C203E
:100030000C94A2160C94B3040C94B3040C94B30463
:100040000C94B3040C94B3040C94B3040C94B30454
:100050000C94B3040C940A170C94B3040C94B304DA
:100060000C94B3040C94B3040C94B3040C94B30434
:100070000C94B3040C94B3040C94B3040C94B30424
:100080000C94B3040C94B3040C94B3040C94B30414
:100090000C94B3040C94B3040C94B3040C94B30404
:1000A0000C94B3040C94B3040C94B304290014000E
:1000B0001A000800150017001C0018000C001200A0
:1000C00013002A004C002B00040016000700090052
:1000D0000A000B000D000E000F00000028004B006E
:1000E000E1001D001B0006001900050011001000B2
:1000F00036003700380052004E00E000E300E20016
:10010000015100002C000000E5000151E400500006
:1001100051004F0035021E001F0020002100220068
:100120002300240025002600270031004900390063
:100130003A003B003C002D002E002F003000330021
:100140003400000001004A0001003D003E003F0075
:100150004000410042004300440045004600317029
:100160004D000070010001000100000001000000CE
:100170000100010001003270307032700100010096
:100180000100010001000100010001000100010067
:100190000100010001000100010001000100010057
:1001A0000100010001000100010000000100010048
:1001B0000100010001000100010001000100010037
:1001C0000100010001000100010001000100010027
:1001D0000100000001000000010001000100010019
:1001E0000100010001000100010001000100010007
:1001F00001000100010001000100010001000100F7
:1002000001000100010001000100010001000100E6
:1002100001000000010001000100010001000100D7
:1002200001000100010001000100010001000100C6
:1002300001000100010001000100000001000000B8
:1002400001000100010001000100010001000100A6
:100250000100010001000100010001000100010096
:100260000100010001000100010001000100010086
:100270000100010001000100010000000100010077
:100280000100010001000100010001000100010066
:100290000100010001000100010001000100010056
:1002A0000100000001000000010001000100010048
:1002B0000100010001000100010001000100010036
:1002C0000100010001000100010001000100010026
:1002D0000100010001000100010001000100010016
:1002E0000100000001000100010001000100010007
:1002F00001000100010001000100010001000100F6
:1003000001000100010001000100000001000000E7
:1003100001000100010001000100010001000100D5
:1003200001000100010001000100010001000100C5
:1003300001000100010001000100010001000100B5
:1003400001000100010001000100000001000100A6
:100350000100010001000100010001000100010095
:100360000100010001000100010001000100010085
:100370000100000001000000010001000100010077
:100380000100010001000100010001000100010065
:100390000100010001000100010001000100010055
:1003A0000100010001000100010001000100010045
:1003B0000100000001000100010001000100010036
:1003C0000100010001000100010001000100010025
:1003D0000100010001000100010000000100000017
:1003E0000100010001000100010001000100010005
:1003F00001000100010001000100010001000100F5
:1004000001000100010001000100010001000100E4
:1004100001000100010001000100000001000100D5
:1004200001000100010001000100010001000100C4
:1004300001000100010001000100010001000100B4
:1004400001000000010000000100010001000100A6
:100450000100010001000100010001000100010094
:100460000100010001000100010001000100010084
:100470000100010001000100010001000100010074
:100480000100000001000100010001000100010065
:100490000100010001000100010001000100010054
:1004A0000100010001000100010000000100000046
:1004B0000100010001000100010001000100010034
:1004C0000100010001000100010001000100010024
:1004D0000100010001000100010001000100010014
:1004E0000100010001000100010000000100010005
:1004F00001000100010001000100010001000100F4
:1005000001000100010001000100010001000100E3
:1005100001000000010000000100010001000100D5
:1005200001000100010001000100010001000100C3
:1005300001000100010001000100010001000100B3
:1005400001000100010001000100010001000100A3
:100550000100000001000100010001000100010094
:100560000100010001000100010001000100010083
:100570000100010001000100010000000100000075
:100580000100010001000100010001000100010063
:100590000100010001000100010001000100010053
:1005A0000100010001000100010001000100010043
:1005B0000100010001000100010000000100010034
:1005C0000100010001000100010001000100010023
:1005D0000100010001000100010001000100010013
:1005E0000100000001000000010001000100010005
:1005F00001000100010001000100010001000100F3
:1006000001000100010001000100010001000100E2
:1006100001000100010001000100010001000100D2
:1006200001000000010001000100010001000100C3
:1006300001000100010001000100010001000100B2
:1006400001000100010001000100000001000000A4
:100650000100010001000100010001000100010092
:100660000100010001000100010001000100010082
:100670000100010001000100010001000100010072
:100680000100010001000100010000000100010063
:100690000100010001000100010001000100010052
:1006A0000100010001000100010001000100010042
:1006B0000100000001000000010001000100010034
:1006C0000100010001000100010001000100010022
:1006D0000100010001000100010001000100010012
:1006E0000100010001000100010001000100010002
:1006F00001000000010001000100010001000100F3
:1007000001000100010001000100010001000100E1
:1007100001000100010001000100000001000000D3
:1007200001000100010001000100010012036B0043
:100730006500790062006F006100720064000000D3
:10074000160371006D006B006200750069006C009B
:1007500064006500720000000403090409026D00D2
:10076000040100A0FA0904000001030101000921AD
:10077000110100012240000705810308000A090455
:1007800001000103010200092111010001224D00B5
:100790000705820308000A090402000103000000A3
:1007A0000921110100012236000705830308000A10
:1007B00009040300010300000009211101000122C6
:1007C0003900070584032000011201100100000018
:1007D00008EDFE606001000102000105010906A1AB
:1007E00001050719E029E715002501950875018124
:1007F00002050819012905950575019102950175F4
:100800000391010507190029F71500250195F875D1
:10081000018102C005010980A1018502160100269F
:1008200003001A81002A8300751095018100C0051C
:100830000C0901A1018503160100269C021A010082
:100840002A9C02751095018100C005010902A101D1
:100850000901A100050919012905150025019505C2
:100860007501810295017503810105010930093186
:100870001581257F95027508810609381581257F28
:10088000950175088106050C0A38021581257F95AA
:100890000175088106C0C005010906A101050719F7
:1008A000E029E7150025019508750181029501757C
:1008B0000881010508190129059505750191029521
:1008C00001750391010507190029FF150026FF0096
:1008D000950675088100C00011241FBECFEFDAE035
:1008E000DEBFCDBF04B603FE27C0809136029091D3
:1008F0003702A0913802B09139028730904BA7405F
:10090000B04BD1F410923602109237021092380296
:100910001092390214BE84B7877F84BF0FB6F89453
:10092000A8958091600088618093600010926000BB
:100930000FBEE0E0F8E3099511E0A0E0B1E0E0ECE3
:10094000F7E402C005900D92A833B107D9F722E071
:10095000A8E3B1E001C01D92A633B207E1F70E94FF
:10096000181D0C94DE230C94000090E080E00895A4
:100970000895089581E00895089581E008950C9404
:10098000BA040E94080F2FEF84E39CE021508040BE
:100990009040E1F700C000000C942F17FF920F93D6
:1009A0001F93CF93DF938C01FC01C081D181809193
:1009B0006C0181113FC082818823B9F1CE010E9470
:1009C0006F14F82E682FCE010E941514BE018F2DD2
:1009D0000E945306EC01B8010E94BF04882309F469
:1009E0004AC0B801CE010E948308882309F443C09D
:1009F000C531F0E7DF0718F5C23080E7D80708F007
:100A00004BC0C115E0E7DE0789F1C130D047D1F115
:100A100081E080933A0180933B01C801DF91CF913F
:100A20001F910F91FF900C94BD04CE010E944414BD
:100A3000F82ECCCFCE010E946F14BE01C9CFCC33AB
:100A400080E7D80709F4ACC0CD33D04709F7F801E7
:100A50008281882309F4CBC010923B010E94D416F6
:100A6000909339018093380180E2A7C0F801828118
:100A700081110E94C10480E0DF91CF911F910F91FD
:100A8000FF900895F80182818823A9F38091F501F0
:100A900081608093F501EFCFF8018281882309F40A
:100AA000BCCF0E942516811102C00E9406160E942A
:100AB000421690E09093270280932602FE01E350B5
:100AC000F047809126028160E231F105C8F4E559D2
:100AD000FA4F0C948E237D0589058D0591059505AA
:100AE00099059D05A105A505A905AD05B105B505A6
:100AF000B905BD05C105C505C905809126028260FD
:100B000080932602809126020E9446160E94080FBA
:100B1000B2CF809126028460F3CF80912602886054
:100B2000EFCF809126028061EBCF80912602806218
:100B3000E7CF809126028064E3CF8091260280680F
:100B4000DFCF809126028460EACF809126028E7FDB
:100B5000D7CF809126028D7FD3CF809126028B7FC5
:100B6000CFCF80912602877FCBCF809126028F7EC8
:100B7000C7CF809126028F7DC3CF809126028F7BC5
:100B8000BFCF809126028F77BBCF809126028B7FCB
:100B9000EACF90912602892F97FB87F98058B0CF32
:100BA000F8018281882361F010923A010E94D416E4
:100BB000909339018093380182E00E94720C5BCFE0
:100BC00080913A0181110FC08091380190913901D3
:100BD0000E94E016883C910530F486E20E94470BA3
:100BE00086E20E94230C82E00E94790C44CF80911F
:100BF0003B0181110FC080913801909139010E9411
:100C0000E016883C910530F487E20E94470B87E2AA
:100C10000E94230C80E2E8CF0C94D408269A2E98E8
:100C20008FEF9FEF909387008093860082E28093FE
:100C3000800089E1809381000C94CD1A0E940E06F9
:100C40000C94D208282F2E9880918000211108C082
:100C50008F7D8093800010928B0010928A000895FF
:100C6000806280938000233039F48FEF9FEF909360
:100C70008B0080938A00089583E090E0821B9109A5
:100C8000880F991F2FEF3FEF02C0369527958A9561
:100C9000E2F730938B0020938A0008950C94BC04F3
:100CA0000C944E060895972F70E02DE0929F600DF2
:100CB000711D1124FB0194E3899FE00DF11D1124A6
:100CC000EE0FFF1FE455FF4F859194910895FC01AD
:100CD000EE0FFF1FE45DF84F8591949108950E94F7
:100CE00053060E940208811520E5920708F040C0D3
:100CF000811530E4930708F0FAC0883E910518F595
:100D0000803E910508F07DC1883A910580F4853ACE
:100D1000910508F087C08130910509F472C120F077
:100D20008430910508F06DC190E080E008958D3B1E
:100D3000910508F482C0803C9105B0F3805C910974
:100D40000E9467060895811540E2940750F48115CA
:100D500021E0920708F055C1803F910528F3906586
:100D60000895811530E3930708F0BEC09F70E8CF67
:100D7000811545E5940760F5811524E5920708F093
:100D8000E5C0811532E5930750F4811541E59407DC
:100D900008F4B0C0982F8827816F906A0895282F93
:100DA00026952695AC01437055278115934508F08B
:100DB000BEC081E090E002C0880F991F4A95E2F71B
:100DC00040E2249F90011124822B932B9C6808956C
:100DD000803340E7940798F4803220E7920708F0C8
:100DE000BFC0811536E5930708F4B5C09C013056A5
:100DF0009F702115304108F097CF9062089581339C
:100E000020E7920709F4B3C008F4AEC0823340E78C
:100E1000940709F4AFC08333904709F085CF80E091
:100E200093ED0895853A910509F4A7C0863A910596
:100E300009F0A6C082E890E40895883A910509F483
:100E4000A2C0893A910509F4A1C08A3A910509F432
:100E5000A0C08B3A910509F49FC08C3A910509F422
:100E60009EC08B3B910509F49DC08C3B910509F414
:100E70009CC08D3A910509F49BC0803B910509F413
:100E80009AC08E3A910509F499C08F3A910509F4F8
:100E900098C0813B910509F497C0823B910509F404
:100EA00096C0833B910509F495C0843B910509F4F4
:100EB00094C0853B910509F493C0863B910509F4E4
:100EC00092C0873B910509F491C0883B910509F4D4
:100ED00090C0893B910509F48FC08A3B910509F4C4
:100EE0008EC080E094E408959927906C08959F70D7
:100EF000906A08959C0154E0369527955A95E1F73C
:100F0000922F9370482F437021E030E002C0220FEF
:100F1000331F4A95E2F73C68392B86958695837096
:100F200040E2849FC0011124822B932B089581E01D
:100F300090E002C0880F991F4A95E2F740E2249F93
:100F400090011124822B932B9A680895982F88275B
:100F5000846F906A0895982F882788279F714DCFB6
:100F600080529047946D089580E091ED089580E05F
:100F700090ED089580E092ED089581E890E4089561
:100F800083E890E4089582EE94E4089589EE94E471
:100F900008958AEE94E4089585EB94E4089586EB31
:100FA00094E4089583EB94E4089584EB94E4089525
:100FB00087EB94E408958CEC94E408958DEC94E42C
:100FC000089583E895E408958AE895E4089582E910
:100FD00095E4089584E995E4089581E296E40895FE
:100FE00083E296E4089584E296E4089585E296E427
:100FF000089586E296E4089587E296E408958AE2E9
:1010000096E408958238910549F1B0F48133910551
:1010100009F45CC048F48932910509F452C08A325F
:10102000910509F458C008958533910509F444C029
:101030008933910599F00895833E910531F138F493
:10104000803E910591F0823E9105B1F00895863E73
:10105000910511F1873E910541F1089520912602F5
:101060002370C9F080EE90E008952091260220FFC1
:1010700012C089E390E008952091260222FF0BC060
:1010800024FF2EC090E080E008952091260222FDEA
:101090002AC024FDF7CF08952091260223FFFBCF1D
:1010A00024FDF0CF87EE90E008952091260223FFE3
:1010B000F0CF86EE90E008952091260225FD16C01F
:1010C00008952091260225FD14C00895209126023E
:1010D00026FD12C008952091260226FD10C0089515
:1010E00083EE90E0089582EE90E0089589E290E02A
:1010F000089585E390E008958AE290E0089581E301
:1011000090E0C9CF08950F931F93CF938C01FB01FB
:101110008281811106C0C1E08C2FCF911F910F9168
:101120000895C0914901C11125C00531104799F7B3
:101130000E94820881E0809349010E94D416909316
:1011400048018093470110923C0110923E01109299
:101150003D011092400110923F0110924201109205
:1011600041011092440110924301109246011092E5
:101170004501D2CF80914701909148010E94E0162D
:10118000883C910540F680913C01E82FF0E0EE0F9D
:10119000FF1FE35CFE4F118300838F5F80933C0150
:1011A000C0E0BACF0C94B8040C94B904CF93DF9389
:1011B00085B7806885BF85B7806885BFA0E2B1E04C
:1011C00044E251E0C1E0D0E08D91E82FE295EF706C
:1011D000F0E061A18F709E0101C0220F8A95EAF7AD
:1011E000922F9095962391A382A1822B82A34A17D6
:1011F0005B0751F7A3E1B1E040E251E0C1E0D0E08C
:101200008D91E82FE295EF70F0E061A18F709E0163
:1012100001C0220F8A95EAF7922F9095962391A309
:1012200082A1822B82A34A175B0751F710925301C8
:101230001092520110924B0110924A0110925501E6
:101240001092540110924D0110924C0110925701CE
:101250001092560110924F0110924E0110925901B6
:10126000109258011092510110925001DF91CF91CC
:101270000C941E064F925F927F928F929F92AF9234
:10128000BF92CF92DF92EF92FF920F931F93CF9373
:10129000DF93CAE4D1E000E211E094E2A92E91E0EC
:1012A000B92EEE24E394F12C99249394C880D9802C
:1012B00019821882D8018D918D01E82FE295EF7087
:1012C000F0E091A18F70970101C0220F8A95EAF793
:1012D000892F822B81A382A1822E8094882182A3D0
:1012E000B0EABA95F1F783E1482E81E0582E90E0FC
:1012F00080E0D2017D912D01472F42954F7050E043
:10130000DA0190967C90488159817F70D70102C0A4
:10131000AA0FBB1F7A95E2F7BD01672109F068C0EB
:10132000B701082E02C0660F771F0A94E2F7462B1A
:10133000572B5983488301968D309105D1F681A1B1
:10134000882281A282A1282B22A388819981C81694
:10135000D90641F090925A010E94D41690935C01F4
:1013600080935B012296A016B10609F09FCF809171
:101370005A01882351F180915B0190915C010E9498
:10138000E016069710F180914A0190914B019093DD
:1013900053018093520180914C0190914D019093A3
:1013A00055018093540180914E0190914F0190938B
:1013B0005701809356018091500190915101909373
:1013C00059018093580110925A010E940C0681E045
:1013D000DF91CF911F910F91FF90EF90DF90CF9011
:1013E000BF90AF909F908F907F905F904F900895A7
:1013F00070E060E09CCFE82FF0E0EE0FFF1FEE5AA8
:10140000FE4F8081918108950895909362018093A9
:1014100061010895E0916101F0916201309721F03E
:101420000190F081E02D099480E00895E091610140
:10143000F0916201309721F00280F381E02D099450
:101440000895E0916101F0916201309721F00480EC
:10145000F581E02D0994089520915F01309160019C
:101460002817390771F09093600180935F01E09134
:101470006101F0916201309721F00680F781E02D43
:101480000994089520915D0130915E012817390774
:1014900071F090935E0180935D01E0916101F091A4
:1014A0006201309721F00084F185E02D09940895C0
:1014B00008950C94580A0E94CB160E94D6080E94E8
:1014C0009C170C94CD1A5F926F927F928F929F928D
:1014D000AF92BF92CF92DF92EF92FF920F931F9342
:1014E000CF93DF93CDB7DEB72A970FB6F894DEBF60
:1014F0000FBECDBF0E943A0994E6A92E91E0B92E05
:1015000010E000E088248394912C502E802F0E94BC
:10151000FB097C01F501C190D1905F01C816D90685
:1015200009F45EC08091F50181FD0E94040A90E0FB
:1015300080E0CE24DF243401082E02C0660C771C24
:101540000A94E2F7960126213721232B09F443C0A0
:101550008E835F82E620F72081E0EF2809F480E0A7
:1015600088870E94D4168160782F9A8789874E8158
:101570005F8168858A850E941D0B000F111FF8018D
:10158000EC59FE4F808191816826792671826082B4
:101590000E941F1A0E940A0A909163018917B9F1EB
:1015A0000E940A0A809363012A960FB6F894DEBF60
:1015B0000FBECDBFDF91CF911F910F91FF90EF90A4
:1015C000DF90CF90BF90AF909F908F907F906F9063
:1015D0005F900C94500601968D30910509F0ABCFC9
:1015E0000F5F1F4F0430110509F08FCF8FEF8983F4
:1015F0008A831B820E94D4168160782F9D838C83FE
:1016000049815A816B818D810E941D0BC1CF2A9621
:101610000FB6F894DEBF0FBECDBFDF91CF911F9103
:101620000F91FF90EF90DF90CF90BF90AF909F9081
:101630008F907F906F905F900895CF93DF93CDB799
:10164000DEB72B970FB6F894DEBF0FBECDBF4F832A
:10165000588769877A878B871E821D8285E0FE0105
:101660003796DE01119601900D928A95E1F7498136
:101670005A816B817C818D819E812B960FB6F89467
:10168000DEBF0FBECDBFDF91CF910C94BA1188237E
:1016900009F4D8C0823871F40E940A0A81FDD2C0D0
:1016A00089E30E940F150E94D71589E30E944C150B
:1016B0000C94D715833859F40E940A0A80FDC2C0E1
:1016C00083E50E940F150E94D71583E5EFCF84387C
:1016D00059F40E940A0A82FDB5C087E40E940F15E2
:1016E0000E94D71587E4E2CF9CEF980F913A18F447
:1016F0000E940F15DDCF90E2980F983050F487705C
:1017000091E001C0990F8A95EAF7892F0E948E1502
:10171000CFCF9BE5980F933070F4853A31F0863A3D
:1017200039F083E890E00C942C0A81E890E0FBCF3C
:1017300082E890E0F8CF98E5980F953108F082C0E4
:10174000883A09F440C0893A09F440C08A3A09F459
:1017500040C08B3A09F440C08C3A09F440C08B3B3E
:1017600009F440C08C3B09F440C08D3A09F440C0F4
:10177000803B09F440C08E3A09F440C08F3A09F426
:1017800040C0813B09F440C0823B09F440C0833B28
:1017900009F440C0843B09F440C0853B09F440C0D3
:1017A000863B09F440C0873B09F440C0883B09F4FC
:1017B00040C0893B09F440C08A3B09F440C090E036
:1017C00080E00C94420A82EE90E0FBCF89EE90E03C
:1017D000F8CF8AEE90E0F5CF85EB90E0F2CF86EB84
:1017E00090E0EFCF83EB90E0ECCF84EB90E0E9CF9B
:1017F00087EB90E0E6CF8CEC90E0E3CF8DEC90E0CF
:10180000E0CF83E891E0DDCF8AE891E0DACF82E9AA
:1018100091E0D7CF84E991E0D4CF81E292E0D1CFBB
:1018200083E292E0CECF84E292E0CBCF85E292E0F9
:10183000C8CF86E292E0C5CF87E292E0C2CF8AE2CB
:1018400092E0BFCF0895882309F44BC0823871F429
:101850000E940A0A81FF45C089E30E940F150E9479
:10186000D71589E30E944C150C94D715833859F489
:101870000E940A0A80FF35C083E50E940F150E946E
:10188000D71583E5EFCF843859F40E940A0A82FF06
:1018900028C087E40E940F150E94D71587E4E2CF85
:1018A0009CEF980F913AF0F290E2980F983050F434
:1018B000877091E001C0990F8A95EAF7892F0E94FD
:1018C0009415D2CF9BE5980F933020F490E080E000
:1018D0000C942C0A885A853120F490E080E00C9416
:1018E000420A0895882321F00E948E150C94D71582
:1018F0000895882321F00E9494150C94D71508951B
:101900008F929F92AF92BF92DF92EF92FF920F93CE
:101910001F93CF93DF937C01D62FC72FFC01058146
:1019200002950F70128111110E94AD150E940815C9
:10193000D82E882371F0112321F180E28D0F883099
:1019400000F182E00E94F2140E94081591E0D82E66
:10195000D926EC2FE295EF70F0E0EF54F34F0C94A2
:101960008E23C30CC30C130D130D550D710DF00C0C
:10197000F00C7C0DF00C140E140E870E900EF00C73
:10198000B00ED12CE6CF0C2F0F70C07F11F0029556
:10199000007F1123A9F0002359F080E28D0F8830D9
:1019A00010F0D11109C0802F0E948E150E94D7150A
:1019B0008D2F0E94470B14C0802F0E949F15F6CFD9
:1019C0008D2F0E94230C002359F080E28D0F883068
:1019D00010F0D11124C0802F0E9494150E94D715B9
:1019E000DD2009F4C4C10E94E51480FDC0C1F701E7
:1019F00012820E94DF140E945913C7010E94C30E75
:101A00000E94DF14DF91CF911F910F91FF90EF9013
:101A1000DF90BF90AF909F908F900C947A13802F9F
:101A20000E94A515DBCFFC2FFF70BF2EC07FC032F8
:101A300019F0B29480EFB822DD2369F0D13029F19A
:101A4000112369F1002359F0F701858180FFB0CFA0
:101A50008F70858304C0112361F0011104C08B2DA8
:101A60000E94720CBDCF8B2D0130D1F70E94C115A1
:101A7000B7CF011106C00E94C4158B2D0E94790CAE
:101A8000AFCF013009F4ACCFF6CF112321F00630EF
:101A900008F0A6CFE4CF053008F0A2CFEECF0023A8
:101AA00061F38D2F0E94230C9BCF8C2F86958695FA
:101AB000837069F0813009F093CF8D2F9C2F937044
:101AC000111102C090E080E00E94420A89CF8D2F60
:101AD0009C2F9370111102C090E080E00E942C0AAC
:101AE0007FCF8D2F112329F00E9428190E94141AEC
:101AF00077CF0E949019FACF8C2F837009F047C0DE
:101B000011116ECF2D2F229526952770220F220FAF
:101B10006D2F6F70862E912CB12CA12C022E04C03B
:101B2000880C991CAA1CBB1C0A94D2F760E070E0D8
:101B3000CB01D4FF0FC06FE070E080E090E004C004
:101B4000660F771F881F991F2A95D2F760957095A9
:101B500080959095C695C695C370C23051F080F4BB
:101B6000682979298A299B29C13071F00E940213C2
:101B700037CF682979298A299B290E941E1330CFE3
:101B80000E940213C501B4010E94E61229CF869576
:101B9000112311F08C2F8170882309F421CF2D2F70
:101BA000229526952770220F220F6D2F6F70862E9B
:101BB000912CB12CA12C022E04C0880C991CAA1CBB
:101BC000BB1C0A94D2F760E070E0CB01D4FF0FC0D9
:101BD0006FE070E080E090E004C0660F771F881F20
:101BE000991F2A95D2F76095709580959095C69526
:101BF000C695C370C23051F080F4682979298A29CA
:101C00009B29C13071F00E94DC13EACE6829792942
:101C10008A299B290E94F813E3CE0E94DC13C50198
:101C2000B4010E94C013DCCEE0E2ED0FE53108F014
:101C300062C0F0E0E25EF14F0C948E23330E330E5F
:101C4000330E330E330E330E330E330E330E330E8C
:101C5000330E330E330E330E330E330E400E4E0E54
:101C6000550E5C0E660EDF708C2F8F71112321F0E4
:101C70000E9459138D2FF4CE0E947A138D2FFECE21
:101C8000112341F0053008F0ABCE8C2F8F710E94EC
:101C90009F13A6CE063008F0A3CEF7CF8C2F8F71FE
:101CA000112339F00E9459139BCE8C2F8F71112371
:101CB000C9F30E947A1394CE112329F08C2F8F71CF
:101CC0000E9444138DCE0E943A138ACE112349F00C
:101CD000CF718C2F0E94591363E08C2F0E94E9145E
:101CE0007FCE81E00E94F214023008F479CE82E0C7
:101CF0000E94F21475CE112329F0011159CE8C2FB8
:101D00008F71D0CF0111CDCE8C2F8F71D2CF4C2FB0
:101D10004F706D2FC7010E94B5040E94631260CE00
:101D200011115ECECF70C230A9F040F4CC2379F00F
:101D3000C13009F055CE0E94F61A52CEC33069F078
:101D4000C43009F04DCE8D2F0E94451B49CE0E9414
:101D5000DE1A46CE0E940F1B43CE0E94221B40CEAD
:101D60004C2F4F706D2FC7010E94520639CEDF9164
:101D7000CF911F910F91FF90EF90DF90BF90AF90A8
:101D80009F908F9008950F931F93CF93DF93EC0153
:101D9000988189812B813C81232B39F08F3F19F465
:101DA00081E09F3F19F080E001C081E080FD17C015
:101DB000CE010E94CE04882391F0688179818A81C6
:101DC0000E94BB148C010E9414140E94DB12B80103
:101DD000CE01DF91CF911F910F910C94800CDF9178
:101DE000CF911F910F9108950E94AD150E94BE15CD
:101DF0000E9480150E94D7150E94C11A0E94141AD1
:101E000090E080E00E942C0A90E080E00C94420A6E
:101E10000E949C150C94F40E0E94B114E92FE295D7
:101E2000EF70E250EE30E0F4F0E0E75EF04F0C943B
:101E30008E23270F270F300F300F320F300F300F48
:101E4000300F270F270F370F300F300F370F803F1E
:101E500019F020F4803E20F481E00895843FE1F3FE
:101E600080E00895803EC0F3813FD1F7F5CF93FB2A
:101E7000882780F90895CF93DF9300D000D01F9278
:101E8000CDB7DEB70F900F900F900F900F90DF91AE
:101E9000CF910895CF93DF9300D000D000D0CDB77D
:101EA000DEB726960FB6F894DEBF0FBECDBFDF912A
:101EB000CF9108951F93CF93DF93C0916D0116E0EA
:101EC00080916E018C1304C0DF91CF911F91089512
:101ED000D0E01C9FF0011D9FF00D1124E159FE4F31
:101EE0004081518162817381848195810E944A0F72
:101EF0002196C770E5CF40919F015091A00160915C
:101F0000A1017091A2018091A3019091A4010C9470
:101F10004A0F1F93CF93DF938091A401807FD1F468
:101F20008091A1018823B1F080916D01D0916E0163
:101F3000B0919F01C091A0014091A2015091A301D5
:101F4000A1E0BF3F09F0A0E0BA016095709516E0EE
:101F5000D81304C0DF91CF911F91089521E041155E
:101F6000510521F02A2FCF3F09F020E090E020FD1D
:101F700038C0189FF001199FF00D1124E159FE4F50
:101F800021812C132EC020812B132BC022812111E3
:101F900028C0238134812417350700F1241B350B19
:101FA000283C3105F0F42091A4012F70206120938A
:101FB000A40126E0289FF001299FF00D1124EC5880
:101FC000FE4F80818F70806180838FE991E00E9455
:101FD000C30EDF91CF911F910C945A0F260F371F1C
:101FE000DFCF01968770B4CFAF92BF92CF92DF92CE
:101FF000EF92FF920F931F93CF93DF93CDB7DEB78E
:1020000061970FB6F894DEBF0FBECDBF8C0185E09F
:10201000F801DE011D9601900D928A95E1F7D80135
:102020004C9111965C9111971296EC9030919F0112
:102030006091A0018091A2019091A30121E00097FD
:1020400031F06F3F19F421E03F3F09F020E0B22F5B
:10205000B170BB2E20FD80C1F801C380D480A09058
:10206000A101AA2009F427C1C816D906D0F1D601CA
:10207000A81BB90BCD01FF24F394883C910508F00F
:10208000F12C8091A401982F907FFF2009F4CAC001
:10209000911187C0FE2C651329C0341327C0E110AD
:1020A00025C08F7080618093A4010E947B0F8FE90F
:1020B00091E00E94C30E8091A401F80185838F2DC9
:1020C00061960FB6F894DEBF0FBECDBFDF91CF9102
:1020D0001F910F91FF90EF90DF90CF90BF90AF9046
:1020E0000895809590958C0D9D1DC5CF81E0CD28DC
:1020F00031F05F3F19F481E04F3F09F080E080FD4F
:1021000024C081E08E25F82FF170DF2E80FF3FC0C4
:1021100080916D0120916E0136E0821318C04D87C9
:102120005E878D859E850E94B114292F22952F7080
:10213000223008F1243030F59F7009F1D80115964E
:102140009C91907FE1F4FB2CBACF80E0DCCF90E053
:10215000389FF001399FF00D1124E159FE4F618144
:10216000561306C06081461303C062816E110FC012
:1021700001968770D2CF9F7011F0882321F3805E83
:10218000883008F3C8010E94C30EBD2CDCCFEE20BE
:1021900009F495CF8091A40181608093A401F12C72
:1021A0008ECF651312C0341310C0E1100EC0F801B9
:1021B0008583C8010E94C30E86E0F801AFE9B1E053
:1021C00001900D928A95E1F741C04D875E878D851C
:1021D0009E850E940C0F882309F4C8C0EE2009F4E4
:1021E000C5C08091A401803270F020919F01309190
:1021F000A00138872F831986DB86CA868C87CE019B
:1022000007960E94C30E86E0F801AFE9B1E00190A5
:102210000D928A95E1F70E94890F0E947B0FFF249F
:10222000F3944DCF911115C07C2DD98AC88A6E2D9B
:1022300089890E943B0F8FE991E00E94C30E86E0DE
:10224000EFE9F1E0DF011D928A95E9F70E947B0F2B
:1022500036CF651312C0341310C0E1100EC0F80160
:102260008583C8010E94C30EEFE9F1E086E0DF013B
:102270001D928A95E9F7FA2C22CF4D875E878D85CE
:102280009E850E940C0F882309F470C0EE2009F48B
:102290006DC08091A401803208F4B5CF20919F01D8
:1022A0003091A0013A8329831B82DD82CC828E8308
:1022B000CE010196A6CFC816D90638F1F601E81B63
:1022C000F90BCF01F12C883C910508F03DC0FE2CA4
:1022D000EE2009F44BC0651326C0341324C080914E
:1022E000A40180FD17C0982F907FA1F0D80115960A
:1022F0008C931597903F09F45CCF982F907F905F57
:102300008F70892B15968C9354CF809590958C0D5A
:102310009D1DD8CF86E0F801AFE9B1E001900D92A4
:102320008A95E1F7CCCE4D875E878D859E850E948C
:102330000C0F811168CF8091A40181608093A4016A
:10234000C8010E94C30EBBCE7C2DD98AC88A6E2DCF
:1023500089890E943B0F73CFEE2041F04D875E8745
:102360008D859E850E940C0F81114DCFC8010E9462
:10237000C30E55CF1F93CF93DF93CDB7DEB72C9706
:102380000FB6F894DEBF0FBECDBF4F835887698765
:102390007A878B879C87CE0107960E94F40F88234B
:1023A00009F442C09F8188852A853B85232B39F01B
:1023B0008F3F19F481E09F3F19F080E001C081E078
:1023C00080FD08C04F81588569857A858B859C85FD
:1023D0000E944A0F16E080916D0190916E0189175D
:1023E00009F467C0819FC001112481599E4F0E944A
:1023F000F40F882309F45DC0E0916D011E9FF00188
:102400001124E159FE4F40815181628173818481A1
:1024100095810E944A0F80916D0190E0019687702E
:10242000992780936D01D7CF86E0FE013796DE01B4
:10243000119601900D928A95E1F79F8188852A85F2
:102440003B85232B39F08F3F19F481E09F3F19F032
:1024500080E001C081E080FDBDCF20916E0130E0C1
:10246000C90101968770992740916D014817190697
:1024700099F096E0929FD001939FB00D1124A1593D
:10248000BE4FFE01319601900D929A95E1F780932F
:102490006E010E945A0F9ECF0E94080F10926E018B
:1024A00010926D0186E0EFE9F1E0DF011D928A955F
:1024B000E9F72C960FB6F894DEBF0FBECDBFDF91C3
:1024C000CF911F910895EF92FF920F931F93CF9397
:1024D000DF938C01892B81F0F12CEE24E394E80149
:1024E0002196F8018491843770F4843008F05FC03D
:1024F0008130B1F08230A1F1DF91CF911F910F9126
:10250000FF90EF900895853709F44CC008F43DC062
:102510009CE7980F903780F78F770E94230C49C073
:102520000E5F1F4FFE01849190E2980F983060F487
:102530008770FE2D01C0FF0F8A95EAF78F2F0E944A
:10254000B0150E94D71502C00E94470B8F2D8150F5
:1025500030F2EFE9FFE03197F1F700C00000F7CF6C
:102560000E5F1F4FFE01849190E2980F983050F457
:102570008770FE2D01C0FF0F8A95EAF78F2F0E940A
:10258000B615DFCF0E94230CE1CF0E5F1F4FFE0177
:10259000C491C150D8F28FE99FE00197F1F700C0D4
:1025A0000000F7CF0E5F1F4FFE01F490CFCF0E94C7
:1025B000470B8E01CBCF08956093CC017093CD0172
:1025C0008093CE019093CF010C94F40E0F931F9340
:1025D0000091CC011091CD012091CE013091CF011D
:1025E000DC01CB01802B912BA22BB32B8093CC0150
:1025F0009093CD01A093CE01B093CF011F910F9185
:102600000C94F40E0F931F930091CC011091CD0107
:102610002091CE013091CF01DC01CB0180239123A9
:10262000A223B3238093CC019093CD01A093CE013C
:10263000B093CF011F910F910C94F40E0F931F9341
:102640000091CC011091CD012091CE013091CF01AC
:10265000DC01CB0180279127A227B3278093CC01EF
:102660009093CD01A093CE01B093CF011F910F9114
:102670000C94F40E1092C8011092C9011092CA0174
:102680001092CB010C94F40E41E050E060E070E059
:1026900004C0440F551F661F771F8A95D2F74093D9
:1026A000C8015093C9016093CA017093CB010C9487
:1026B000F40E41E050E060E070E004C0440F551FAC
:1026C000661F771F8A95D2F78091C8019091C90142
:1026D000A091CA01B091CB01842B952BA62BB72BCF
:1026E0008093C8019093C901A093CA01B093CB0114
:1026F0000C94F40E41E050E060E070E004C0440F40
:10270000551F661F771F8A95D2F7409550956095A3
:1027100070958091C8019091C901A091CA01B091B2
:10272000CB0184239523A623B7238093C8019093DC
:10273000C901A093CA01B093CB010C94F40E41E0FF
:1027400050E060E070E004C0440F551F661F771F23
:102750008A95D2F78091C8019091C901A091CA01D0
:10276000B091CB0184279527A627B7278093C8016E
:102770009093C901A093CA01B093CB010C94F40EBD
:102780000F931F930091C8011091C9012091CA01B4
:102790003091CB01DC01CB01802B912BA22BB32BF1
:1027A0008093C8019093C901A093CA01B093CB0153
:1027B0001F910F910C94F40E0F931F930091C80179
:1027C0001091C9012091CA013091CB01DC01CB01EC
:1027D00080239123A223B3238093C8019093C9013E
:1027E000A093CA01B093CB011F910F910C94F40EEA
:1027F0000F931F930091C8011091C9012091CA0144
:102800003091CB01DC01CB0180279127A227B32790
:102810008093C8019093C901A093CA01B093CB01E2
:102820001F910F910C94F40E08952DE0929F800D4E
:102830001124982F977071E001C0770F9A95EAF7ED
:1028400086958695869525E0829FC001112450E0EB
:1028500040E0A62FB0E0FC01E40FF51FEB55FE4F62
:1028600060819D01042E02C0369527950A94E2F7F7
:102870002170219526272723262720834F5F5F4F2E
:102880004530510541F708952DE0929F800D1124A8
:10289000982F977086958695869525E0829FA00152
:1028A000112470E060E080E0FA01E60FF71FEB55BD
:1028B000FE4F208130E0092E02C0369527950A94FC
:1028C000E2F721703327062E01C0220F0A94EAF79F
:1028D000822B6F5F7F4F6530710531F70895BF928E
:1028E000CF92DF92EF92FF920F931F93CF93DF93DC
:1028F0008C01C090C801D090C901E090CA01F0904D
:10290000CB018091CC019091CD01A091CE01B091ED
:10291000CF01C82AD92AEA2AFB2ACFE1D0E0BC2E6F
:10292000D701C6010C2E04C0B695A795979587953B
:102930000A94D2F780FD0EC0219788F7B12C8B2D19
:10294000DF91CF911F910F91FF90EF90DF90CF908B
:10295000BF900895B8018C2F0E946F06019761F314
:10296000EECFCF93DF93EC010E946F14BE01DF9195
:10297000CF910C946F061F93CF93DF93EB0190914F
:102980006C01992331F0CB01DF91CF911F910C9411
:10299000B114882379F0CB010E946F14182F682F8F
:1029A000CE010E941514BE01812FDF91CF911F919E
:1029B0000C946F06CB010E944414182FF4CF809121
:1029C000D00185958595859508958091D001877072
:1029D000089598E0899F90011124622B6093D001A3
:1029E0000C9459139091D001809589238093D00144
:1029F000282F277061F4282F082E000C330B921714
:102A0000130629F08595859585950C947A1308957C
:102A10009091D001977081E009F480E00895909141
:102A200012019923E1F09091260297FF18C0E82F38
:102A3000E695E695E695EF3139F120910001309168
:102A40000101E20FF32FF11D877021E030E001C09A
:102A5000220F8A95EAF78181822B81830895209144
:102A6000000130910101F90132969FEF40E0519150
:102A7000851751F09F3F19F4511101C0942F4F5FFA
:102A80004E31A9F79F3F09F40895290F311D97FD95
:102A90003A95F90182830895909112019923F1F0FA
:102AA0009091260297FF1AC0E82FE695E695E695E5
:102AB000EF3129F12091000130910101E20FF32F54
:102AC000F11D282F277081E090E001C0880F2A9522
:102AD000EAF78095918189238183089520910001EF
:102AE00030910101F9013296205E3F4F9191891397
:102AF00003C0DF0111971C92E217F307B9F708959D
:102B000081E090E0E0910001F0910101E80FF91FF0
:102B10001082019680329105A9F708959091F401F1
:102B2000892B8093F4010895982F90958091F4015A
:102B300089238093F40108951092F40108959091EF
:102B4000F301892B8093F3010895982F909580913C
:102B5000F30189238093F30108951092F3010895FE
:102B60009091F201892B8093F2010895982F90950E
:102B70008091F20189238093F20108951092F2016D
:102B800008958093D10108951092D1010895209164
:102B9000000130910101F9013196205E3F4F80E044
:102BA000919191118F5FE217F307D1F70895E091AA
:102BB0000001F09101018091F4018083E091000116
:102BC000F091010180819091F301892B8083E09144
:102BD0000001F091010180819091F201892B8083A5
:102BE0009091D101992361F0E0910001F0910101F0
:102BF0008081892B80830E94C71581111092D10199
:102C000080910001909101010C94160A6DEE7EEF07
:102C100090E080E00E94C82360E082E090E00E94A3
:102C2000B62360E083E090E00E94B62360E084E099
:102C300090E00E94B62360E085E090E00E94B62319
:102C400060E086E090E00C94B62390E080E00E9483
:102C5000B02321E08D3E9E4F09F020E0822F0895A1
:102C600082E090E00C94A823682F82E090E00C941E
:102C7000B62383E090E00C94A823682F83E090E0D3
:102C80000C94B62384E090E00C94A823682F84E091
:102C900090E00C94B62386E090E00C94A823682F73
:102CA00086E090E00C94B62380912D02843051F19F
:102CB0001092F60188E190E020E40FB6F894A89510
:102CC000809360000FBE2093600080E00E94220687
:102CD00080E00E94500683B7817F846083BF83B702
:102CE000816083BF7894889583B78E7F83BF0FB64A
:102CF000F894A8958091600088618093600010929C
:102D000060000FBE089508950895CF930E94831622
:102D10000E943A090E948416C0E08C2F0E94FB0991
:102D2000892B31F4CF5FC430C1F780E0CF91089593
:102D300081E0FCCF0E94080F0E94CD1A0E940A0A6F
:102D40000C9450061F920F920FB60F9211248F937E
:102D50009F93AF93BF938091F601811113C080912F
:102D6000220290912302A0912402B0912502419663
:102D7000A11DB11D8093220290932302A0932402EF
:102D8000B0932502BF91AF919F918F910F900FBE8D
:102D90000F901F90189582E084BD93E095BD9AEF47
:102DA00097BD80936E0008952FB7F894809122020A
:102DB00090912302A0912402B09125022FBF089583
:102DC000CF92DF92EF92FF920F931F932FB7F89459
:102DD00040912202509123026091240270912502B9
:102DE0002FBF6A017B01EE24FF248C0130E020E03C
:102DF000C016D106E206F30650F0481B590BCA0173
:102E00001F910F91FF90EF90DF90CF900895415068
:102E10005109F3CF1F920F920FB60F9211248F9387
:102E20009F93AF93BF938091220290912302A09130
:102E30002402B09125020196A11DB11D80932202AA
:102E400090932302A0932402B0932502BF91AF91E7
:102E50009F918F910F900FBE0F901F9018950E9419
:102E60004E1FF8942FEF87EA91E621508040904062
:102E7000E1F700C0000087E090EBDC0180933602B0
:102E800090933702A0933802B093390288E19CE016
:102E90000FB6F894A895809360000FBE90936000E1
:102EA000FFCFAF92BF92CF92DF92EF92FF920F933C
:102EB0001F93CF93C0E0CC24C394D12CE82EF12CE7
:102EC0008C2F0E94FB095C0110E000E0C601002E7F
:102ED00002C0880F991F0A94E2F78A219B21892B4F
:102EE00099F40F5F1F4F0D30110581F7CF5FC4308C
:102EF00039F780E0CF911F910F91FF90EF90DF9015
:102F0000CF90BF90AF900895602F7C2F80E00E94FB
:102F10005306E816F90629F781E0ECCFCF93C82FC6
:102F20008CE20E945117882321F08C2FCF910C94B2
:102F3000511780E0CF910895CF930E9425168111FB
:102F400002C00E940616C5E608C00E943A098FE337
:102F50009CE90197F1F700C00000C150B1F789E288
:102F60000E948E178111EFC08AE20E948E17811194
:102F70000E94061685E00E948E1781110E942F176D
:102F80000E9430168093F50187E00E948E178823F7
:102F900071F08BE10E948E17882309F4B1C09091E3
:102FA000F501892F8D7F91FF82608093F5018091DB
:102FB000F5010E9434160E94421690E09093270279
:102FC0008093260280EE0E948E17882341F0909114
:102FD0002602892F8E7F90FF81608093260289E3ED
:102FE0000E948E17882341F090912602892F8D7FB1
:102FF00091FF82608093260282EE0E948E178823C2
:1030000041F090912602892F8B7F92FF84608093FC
:10301000260286EE0E948E17882341F090912602A8
:10302000892F877F93FF88608093260283EE0E941A
:103030008E17882341F090912602892F8F7E94FF6E
:1030400080618093260285E30E948E17882341F0D9
:1030500090912602892F8F7D95FF806280932602B2
:1030600081E30E948E17882341F090912602892FD8
:103070008F7B96FF80648093260281E10E948E17E9
:10308000882341F090912602892F97FB87F9805879
:1030900080932602809126020E94461687E20E94B3
:1030A0008E17C82F8EE10E948E178111C2608FE1AA
:1030B0000E948E178111C46080E20E948E178111D8
:1030C000C86081E20E948E178111C06182E20E9475
:1030D0008E178111C06283E20E948E178111C06435
:1030E00084E20E948E17882341F1C0688C2F0E94D1
:1030F0003D166C2F70E090E080E0CF910C94DC12D4
:103100008EE00E948E17882339F09091F501892F67
:103110008B7F92FF846049CF80E10E948E1790914F
:10312000F501882329F0892F877F93FF88603DCFA1
:10313000892F8E7F90FF816038CFC111D7CF0E9439
:103140003916682FD7CFCF9108958091F90180FF6C
:1031500012C06091050185E0689FB001112475954A
:1031600067957595679560387105A8F561157105C6
:10317000A1F1862F089581FF09C06091050185E0C6
:10318000689FB001112475956795EDCF82FF07C048
:103190006091050185E0689FB0011124E4CF209182
:1031A000FA012223A9F0909104016091050185E0C4
:1031B000689FB00111242917B0F6269FA001279F10
:1031C000500D1124692F70E0CA010E947A23CBCFE1
:1031D00065E070E0CECF8FE7089581E0089580919B
:1031E000F90180FF0CC06091030170E0759567954F
:1031F000759567956115710549F1862F089581FFD1
:1032000006C06091030170E075956795F3CF6091FA
:10321000030182FD0BC09091FA019923A1F0609106
:10322000020180910301961738F0682F70E0603832
:10323000710500F38FE70895899FC001112470E0A4
:103240000E947A23F4CF61E070E0D7CF81E0089547
:10325000803F31F40E94A51881958093FD01089567
:10326000813F19F40E94A518F8CF823F31F40E94E3
:10327000A51881958093FC010895833F19F40E945D
:10328000A518F8CF893F29F40E94EF188093FE011A
:1032900008958A3F21F40E94EF188195F7CF8B3F64
:1032A00031F40E94EF1881958093FF0108958C3FBF
:1032B00019F40E94EF18F8CF843F31F48091FB019C
:1032C00081608093FB010895853F21F48091FB018B
:1032D0008260F7CF863F21F48091FB018460F1CFBB
:1032E000873F21F48091FB018860EBCF883F21F478
:1032F0008091FB018061E5CF8D3F31F48091F90130
:1033000081608093F90108958E3F21F48091F90145
:103310008260F7CF8F3FB9F78091F9018460F1CFD8
:10332000803FC1F48091FD0187FD1092FD018091E5
:10333000FC0181110EC08091FD0181110AC08091B4
:10334000FE01811106C08091FF01811102C010921F
:10335000FA010895813F29F48091FD0118162CF39C
:10336000E6CF9091FC01823F29F497FFE0CF1092C5
:10337000FC01DDCF833F19F41916CCF3D8CF893F78
:1033800039F48091FE01181694F61092FE01CFCF09
:103390008A3F29F48091FE0187FFC9CFF6CF8B3F8A
:1033A00039F48091FF0187FFC2CF1092FF01BFCF98
:1033B0008C3F29F48091FF011816BCF3B8CF843FED
:1033C00031F48091FB018E7F8093FB01B0CF853F6C
:1033D00021F48091FB018D7FF7CF863F21F480910E
:1033E000FB018B7FF1CF873F21F48091FB01877F29
:1033F000EBCF883F21F48091FB018F7EE5CF8D3F9D
:1034000031F48091F9018E7F8093F90190CF8E3F46
:1034100021F48091F9018D7FF7CF8F3F09F087CF9D
:103420008091F9018B7FF0CF8BEF91E00E94210A10
:103430000E94D4169093F8018093F70108951F938A
:10344000CF93DF938091F7019091F8010E94E016ED
:10345000AC019091FA012091060130E0911106C073
:10346000209107018AE0289F9001112442175307F9
:1034700080F08091FC01C091FD011091FE01D0917E
:10348000FF0181110AC0C11178C0111176C0D1119C
:1034900074C0DF91CF911F9108959F3F19F09F5FF6
:1034A0009093FA01181624F40E94A5188093FC0149
:1034B0008091FC0187FF05C00E94A518819580932B
:1034C000FC011C1624F40E94A5188093FD01809134
:1034D000FD0187FF05C00E94A51881958093FD011D
:1034E0006091FC01662331F1C091FD01CC2311F103
:1034F000062E000C770B880B990B0E94812223E388
:1035000033E343E35FE30E94E5220E944922609394
:10351000FC016C2FCC0F770B880B990B0E9481223A
:1035200023E333E343E35FE30E94E5220E94492261
:103530006093FD01111624F40E94EF188093FE01A0
:103540008091FE0187FF05C00E94EF18819580934E
:10355000FE011D1624F40E94EF188093FF01809154
:10356000FF0187FF05C00E94EF1881958093FF013E
:10357000DF91CF911F910C94141A9F3F09F08FCFC8
:10358000A0CF85E0EBEFF1E0DF011D928A95E9F72E
:103590001092FA011092F90108950E9425168111E6
:1035A00002C00E9406160E944B168093280280FFDC
:1035B00003C086950C94220680E0FCCF80912802FF
:1035C000982F9695933030F49F5F990F8170892BD7
:1035D00080932802809128028160809328020E94B3
:1035E0004F168091280286950C942206809128021D
:1035F000982F9E7F79F08250809328028E7F91E0F1
:1036000009F490E08091280290FB80F980932802D1
:103610000E944F168091280286950C942206909164
:103620002802892F8E7F90FF8160809328020E945C
:103630004F168091280280FF03C086950C942206C5
:1036400080E0FCCF90912802892F86958F5F8F773D
:1036500091708430B8F4880F892B80932802809170
:1036600028028E7F91E009F490E08091280290FB7F
:1036700080F9809328020E944F1680912802869537
:103680000C94220690932802EACF90912802292FC9
:1036900026958227880F9170982B909328029E7F01
:1036A00021E009F420E08091280220FB80F980933A
:1036B00028020E944F168091280286950C942206BB
:1036C000809120020895CF93DF9300D01F92CDB751
:1036D000DEB79C0180912D02843019F593E0998327
:1036E0003B832A839093E9008FEF9091E80081500B
:1036F00095FD06C095ED9A95F1F700008111F5CF83
:103700008091E80085FF0DC050E040E063E070E08C
:10371000CE0101960E94BE1D8091E8008E778093B5
:10372000E8000F900F900F90DF91CF910895CF9305
:10373000DF9300D01F92CDB7DEB720912D02243049
:1037400031F522E02983805891099B838A8383E0A5
:103750008093E9008FEF9091E800815095FD06C0BD
:1037600095ED9A95F1F700008111F5CF8091E80071
:1037700085FF0DC050E040E063E070E0CE010196AF
:103780000E94BE1D8091E8008E778093E8000F9024
:103790000F900F90DF91CF9108959C0180912D02A1
:1037A0008430F9F482E08093E9009FEF8091E80093
:1037B000915085FD06C085ED8A95F1F700009111C5
:1037C000F5CF8091E80085FF0CC050E040E065E057
:1037D00070E0C9010E94BE1D8091E8008E77809341
:1037E000E8000895CF93DF93EC0180912D0284309F
:1037F000F1F4909112019923E9F09091260297FF3C
:1038000019C08093E9008FEF9091E800815095FDF9
:1038100006C095E19A95F1F700008111F5CF8091EE
:10382000E80050E040E060E270E085FD1AC0DF9102
:10383000CF91089581E08093E9008FEF9091E800A7
:10384000815095FD06C095ED9A95F1F70000811124
:10385000F5CF8091E80085FFEACF50E040E068E0D6
:1038600070E0CE010E94BE1D8091E8008E778093AB
:10387000E80080E2FE01A0E0B2E001900D928A959E
:10388000E1F7D5CF80912C02811109C00E944E1F13
:103890000E94AB1F8091E20084608093E200089553
:1038A00010922C020895089508950C949A1642E0FF
:1038B00061EC81E00E94CC1E42E061EC82E00E945B
:1038C000CC1E42E061EC83E00E94CC1E42E261EC3F
:1038D00084E00C94CC1E80912F02833009F455C0F3
:1038E00030F4813071F1823009F491C008958A304A
:1038F00009F47DC08B3009F463C0893009F044C0FD
:1039000080912E02813209F03FC080913202909165
:103910003302009711F00397B9F58091E800877F93
:103920008093E8008091E80082FF2AC08091F10036
:10393000809320028091E8008B778093E8000C94BC
:10394000001F80912E02813AF9F48091E800877F70
:103950008093E8008091320290913302892B61F4C8
:1039600060E280E092E070E00E940D1E8091E8002D
:103970008B778093E800089560E090E080E0F3CFDB
:1039800080912D028111CECF089580912E02813A2F
:10399000D9F78091320290913302892BA9F7809157
:1039A000E800877F8093E8008091E80080FFFCCFEB
:1039B000809112018093F1008091E8008E77BDCF55
:1039C00080912E02813201F7809132029091330270
:1039D000892BD1F68091E800877F8093E8000E94D0
:1039E000001F80913002809312010C94080F809187
:1039F0002E02813249F68091E800877F8093E800AB
:103A00000E94001F809131028093210208958091CD
:103A10002E02813A09F0B8CF8091E800877F809329
:103A2000E8008091E80080FFFCCF80912102C2CFA6
:103A300084B7877F84BF0FB6F894A8958091600003
:103A4000886180936000109260000FBE80E88093D0
:103A50006100109261000E94590A0E944E1F0E944C
:103A6000AB1F8091E20084608093E20078940E9412
:103A70002D220E945B0A88E091E00E94050A809155
:103A80002D02853019F00E94630AF9CF0E94541666
:103A900080912B02882399F30E948516882379F35D
:103AA0000E94A81DECCF292F33272330310579F14F
:103AB00058F421303105F1F02230310519F190E050
:103AC00080E030E020E01AC02132310599F1223245
:103AD0003105A9F7643098F770E0FB01EE0FFF1F86
:103AE000E85DFE4F208131816C5D7E4FFB0180815E
:103AF00090E004C082E190E029EC37E0FA013183E4
:103B0000208308958DE690E02CE537E0F7CF9927E4
:103B10008130910561F028F0029789F6ECE2F7E038
:103B200002C0E8E5F7E0849190E09F01E7CFE0E490
:103B3000F7E0F9CF643008F0C2CFE62FF0E0EE0FE7
:103B4000FF1FE05DFE4F2081318189E090E0D6CFFC
:103B500080E189BD82E189BD09B400FEFDCF80917D
:103B6000D8008F7D8093D8008091E00082608093A0
:103B7000E0008091E00081FDFCCF0895AF92BF92FC
:103B8000CF92DF92FF920F931F93CF93DF936C013D
:103B9000EB018A010E941F1FF82E811123C001151D
:103BA000110539F0F80180819181C81BD90BC80E2D
:103BB000D91EB12CA12C2097A9F08091E80085FD99
:103BC00022C08091E8008E778093E80001151105EE
:103BD000A1F0F80180819181A80EB91EB182A08266
:103BE00085E0F82E8F2DDF91CF911F910F91FF90DF
:103BF000DF90CF90BF90AF9008950E941F1F882341
:103C0000D1F2F82EEFCFF60181916F018093F10090
:103C10002197FFEFAF1ABF0ACECFFC01809134028B
:103C20009091350286179707A0F06115710529F468
:103C30009091E8009E779093E80090E061157105FF
:103C400051F4911108C08091E80082FF35C080E0F6
:103C50000895BC01F2CF80912D028823C9F18530EF
:103C6000C9F18091E80083FD31C08091E80082FDB8
:103C7000EACF8091E80080FFE1CF2091F3008091AE
:103C8000F200322F282F6115710519F02830310507
:103C900058F091E02830310509F090E02091E800DB
:103CA0002E772093E800CACF81918093F100615074
:103CB00071092F5F3F4FE7CF80912D02882341F09C
:103CC000853041F08091E80083FFBDCF81E0089509
:103CD00082E0089583E00895FC0180913402909180
:103CE000350286179707A0F06115710529F48091B8
:103CF000E8008E778093E80090E06115710551F43B
:103D0000911108C08091E80082FF36C080E00895DC
:103D1000BC01F2CF80912D028823D1F18530D1F101
:103D20008091E80083FD32C08091E80082FDEACFF7
:103D30008091E80080FFE1CF2091F3008091F200B4
:103D4000322F282F6115710519F02830310558F0F0
:103D500091E02830310509F090E08091E8008E77FD
:103D60008093E800CACF84918093F100319661502E
:103D700071092F5F3F4FE6CF80912D02882341F0DC
:103D8000853041F08091E80083FFBCCF81E0089549
:103D900082E0089583E00895982F973028F08F707F
:103DA0008093E90081E008959093E900242F762F15
:103DB00050E0981731F07091EC002091ED00509197
:103DC000F00021FD02C09F5FE8CF3091EB003E7F05
:103DD0003093EB003091ED003D7F3093ED0030915A
:103DE000EB0031603093EB007093EC002093ED001A
:103DF0005093F0002091EE0027FDE5CF80E008957C
:103E000080912E0287FF13C08091E80082FF06C0D8
:103E10008091E8008B778093E80004C080912D02A8
:103E20008111F2CF089580912D028823D9F38091DA
:103E3000E80080FFF8CF8091E8008E77ECCF2091EA
:103E4000E4003091E50085E69091EC0090FF06C01B
:103E50009091E80090FF06C080E008959091E800FE
:103E600092FDFACF90912D02992391F0953091F027
:103E70009091EB0095FD10C04091E4005091E50059
:103E80002417350709F381509A01F1F684E008956B
:103E900082E0089583E0089581E008950E94BC1FA8
:103EA0000E94C41FE0EEF0E0808181608083E8ED35
:103EB000F0E080818F77808319BCA7EDB0E08C9112
:103EC0008E7F8C9380818F7E808310922C02089548
:103ED0000F931F93CF93DF930E94BC1F0E94C41FB8
:103EE000C8EDD0E088818F77888388818068888357
:103EF00088818F7D888319BC10922D02109229022F
:103F000010922B0210922A0200EE10E0F80180813C
:103F10008B7F808388818160888342E060E080E0DD
:103F20000E94CC1EE1EEF0E080818E7F8083E2EE85
:103F3000F0E0808181608083808188608083F801E7
:103F400080818E7F8083888180618883DF91CF919B
:103F50001F910F910895E8EDF0E080818F7E8083BE
:103F6000E7EDF0E080818160808384E082BF81E0C2
:103F700080932C020C94681FE8EDF0E080818E7F26
:103F800080831092E20008951092DA001092E1000E
:103F900008951F920F920FB60F9211242F933F9303
:103FA0004F935F936F937F938F939F93AF93BF9341
:103FB000EF93FF938091E10082FF0BC08091E200BC
:103FC00082FF07C08091E1008B7F8093E1000E9417
:103FD0002C228091DA0080FF19C08091D80080FFE8
:103FE00015C08091DA008E7F8093DA008091D9002D
:103FF00080FF94C080E189BD82E189BD09B400FEE3
:10400000FDCF81E080932D020E94421C8091E1004F
:1040100080FF19C08091E20080FF15C08091E2000E
:104020008E7F8093E2008091E20080618093E200C5
:104030008091D80080628093D80019BC85E080937D
:104040002D020E94541C8091E10084FF29C08091C0
:10405000E20084FF25C080E189BD82E189BD09B409
:1040600000FEFDCF8091D8008F7D8093D800809195
:10407000E1008F7E8093E1008091E2008F7E80934B
:10408000E2008091E20081608093E2008091290249
:10409000882309F449C084E080932D020E94551CB6
:1040A0008091E10083FF29C08091E20083FF25C059
:1040B0008091E100877F8093E10082E080932D0270
:1040C000109229028091E1008E7F8093E10080911F
:1040D000E2008E7F8093E2008091E2008061809315
:1040E000E20042E060E080E00E94CC1E8091F0009F
:1040F00088608093F0000E94531CFF91EF91BF9164
:10410000AF919F918F917F916F915F914F913F916F
:104110002F910F900FBE0F901F90189519BC109201
:104120002D020E94501C72CF8091E30087FD02C0D7
:1041300081E0B2CF83E0B0CF1F920F920FB60F9203
:1041400011242F933F934F935F936F937F938F939C
:104150009F93AF93BF93CF93EF93FF93C091E900E9
:10416000CF708091EC001092E9008091F000877F81
:104170008093F00078940E94D8201092E9008091FA
:10418000F00088608093F000C093E900FF91EF9108
:10419000CF91BF91AF919F918F917F916F915F91DF
:1041A0004F913F912F910F900FBE0F901F90189538
:1041B0001F93CF93DF93CDB7DEB7AA970FB6F894CE
:1041C000DEBF0FBECDBFEEE2F2E08091F100819341
:1041D00022E0E633F207C9F70E946B1C8091E800E9
:1041E00083FF42C080912E0290912F029A3008F0F6
:1041F0003BC0E92FF0E0E150FF4D0C948E230921E4
:104200002D2134212D2134218821AA213421FF217F
:104210000C22803879F0823839F5809132028F7023
:104220008093E9008091EB0085FB882780F910924C
:10423000E90006C080912A0290912B0291118260C0
:104240009091E800977F9093E8008093F10010929E
:10425000F1008091E8008E772DC0282F2D7F21F46A
:104260008823D1F0823059F18091E80083FF0AC0A1
:104270008091E800877F8093E8008091EB00806266
:104280008093EB00AA960FB6F894DEBF0FBECDBFA9
:10429000DF91CF911F91089580913002813021F7F5
:1042A000933009F080E080932B021092E900809116
:1042B000E800877F8093E8000E94001FD5CF80919F
:1042C00030028111F2CF809132028F7069F28093B7
:1042D000E9002091EB0020FFE8CF933031F480918A
:1042E000EB0080628093EB00E0CF9091EB00906157
:1042F0009093EB0021E030E001C0220F8A95EAF7AD
:104300002093EA001092EA008091EB008860EACFE7
:104310008111AACF109130021F778091E30080783D
:10432000812B8093E3008091E800877F8093E800F1
:104330000E94001F8091E80080FFFCCF8091E30085
:1043400080688093E30083E0111101C082E08093D4
:104350002D028ACF8058823008F086CF80913002BB
:10436000909131028C3D23E09207A1F583E08A838E
:104370008AE289834FB7F894DE01139620E03EE08D
:1043800051E2E32FF0E050935700E49120FF03C087
:10439000E295EF703F5FEF708E2F90E0EA30C0F053
:1043A000C7968D939D932F5F243159F74FBF80910E
:1043B000E800877F8093E8006AE270E0CE01019612
:1043C0000E940D1E8091E8008B778093E8004CCF0F
:1043D000C096E7CFAE014F5F5F4F609132020E94FF
:1043E000531DBC01892B09F43FCF9091E800977FC2
:1043F0009093E80089819A810E946C1EE3CF8038F7
:1044000009F032CF8091E800877F8093E8008091A7
:1044100029028093F1001DCF811126CF90913002A7
:10442000923008F021CF8091E800877F8093E800E8
:10443000909329020E94001F80912902882331F065
:1044400084E080932D020E94571C0ECF8091E300E0
:1044500087FDF6CF81E0F5CF0895CF9380912D02AF
:10446000882399F0C091E900CF708091EC0080FD25
:104470000EC080E0C82B1092E9008091E80083FD17
:104480000E94D820CF70C093E900CF91089580E8B2
:10449000F1CF0E9450226894B1110C94DF2208954C
:1044A0000E94C42288F09F5798F0B92F9927B751DE
:1044B000B0F0E1F0660F771F881F991F1AF0BA95C8
:1044C000C9F714C0B13091F00E94DE22B1E0089526
:1044D0000C94DE22672F782F8827B85F39F0B93F18
:1044E000CCF3869577956795B395D9F73EF490957B
:1044F0008095709561957F4F8F4F9F4F0895E894F9
:1045000009C097FB3EF490958095709561957F4F1B
:104510008F4F9F4F9923A9F0F92F96E9BB279395C9
:10452000F695879577956795B795F111F8CFFAF4D9
:10453000BB0F11F460FF1BC06F5F7F4F8F4F9F4F0A
:1045400016C0882311F096E911C0772321F09EE868
:10455000872F762F05C0662371F096E8862F70E0CE
:1045600060E02AF09A95660F771F881FDAF7880FA8
:104570009695879597F9089557FD9058440F551FC4
:1045800059F05F3F71F04795880F97FB991F61F0D5
:104590009F3F79F087950895121613061406551F4C
:1045A000F2CF4695F1DF08C0161617061806991FB8
:1045B000F1CF86957105610508940895E894BB27AD
:1045C00066277727CB0197F908950E94F8220C946B
:1045D00069230E945B2338F00E94622320F0952318
:1045E00011F00C9452230C94582311240C94DF22C4
:1045F0000E94BC2270F3959FC1F3950F50E0551FA8
:10460000629FF001729FBB27F00DB11D639FAA2727
:10461000F00DB11DAA1F649F6627B00DA11D661F76
:10462000829F2227B00DA11D621F739FB00DA11D97
:10463000621F839FA00D611D221F749F3327A00D51
:10464000611D231F849F600D211D822F762F6A2FED
:1046500011249F5750409AF0F1F088234AF0EE0F52
:10466000FF1FBB1F661F771F881F91505040A9F77F
:104670009E3F510580F00C9452230C94DF225F3F43
:10468000E4F3983ED4F3869577956795B795F795BB
:10469000E7959F5FC1F7FE2B880F911D9695879533
:1046A00097F9089597F99F6780E870E060E00895B2
:1046B0009FEF80EC089500240A941616170618063A
:1046C0000906089500240A94121613061406050616
:1046D0000895092E0394000C11F4882352F0BB0FA7
:1046E00040F4BF2B11F460FF04C06F5F7F4F8F4F0A
:1046F0009F4F089597FB072E16F4009407D077FD7F
:1047000009D00E94942307FC05D03EF49095819532
:104710009F4F0895709561957F4F0895EE0FFF1F8D
:104720000590F491E02D0994AA1BBB1B51E107C031
:10473000AA1FBB1FA617B70710F0A61BB70B881F31
:10474000991F5A95A9F780959095BC01CD010895C0
:10475000F999FECF92BD81BDF89A992780B5089549
:10476000A8E1B0E042E050E00C94D023262FF99964
:10477000FECF92BD81BDF89A019700B4021639F0C0
:104780001FBA20BD0FB6F894FA9AF99A0FBE089591
:104790000196272F0E94B7230C94B623DC01CB018E
:1047A000FC01F999FECF06C0F2BDE1BDF89A319641
:1047B00000B40D9241505040B8F70895F894FFCFDF
:1047C000D2012808140A321E601BF21BCD1B971B56
:1047D000631B01F4F6F531F7919094669734C63572
:1047E00093923233404D363997084A081408DB0754
:0847F0006E078707A007B90757
:00000001FF
